{
  "address": "0x97313e3d7010176Adf4a10cd1C9b6E526df5152D",
  "abi": [
    {
      "inputs": [
        {
          "internalType": "address",
          "name": "_trustedSigner",
          "type": "address"
        }
      ],
      "stateMutability": "nonpayable",
      "type": "constructor"
    },
    {
      "anonymous": false,
      "inputs": [
        {
          "indexed": false,
          "internalType": "uint256",
          "name": "collisionCount",
          "type": "uint256"
        },
        {
          "indexed": false,
          "internalType": "address",
          "name": "player",
          "type": "address"
        }
      ],
      "name": "Collision",
      "type": "event"
    },
    {
      "anonymous": false,
      "inputs": [
        {
          "indexed": true,
          "internalType": "address",
          "name": "player",
          "type": "address"
        },
        {
          "indexed": false,
          "internalType": "uint256",
          "name": "amount",
          "type": "uint256"
        }
      ],
      "name": "Payout",
      "type": "event"
    },
    {
      "inputs": [],
      "name": "collisionCount",
      "outputs": [
        {
          "internalType": "uint256",
          "name": "",
          "type": "uint256"
        }
      ],
      "stateMutability": "view",
      "type": "function"
    },
    {
      "inputs": [
        {
          "internalType": "address",
          "name": "",
          "type": "address"
        }
      ],
      "name": "latestNonce",
      "outputs": [
        {
          "internalType": "uint256",
          "name": "",
          "type": "uint256"
        }
      ],
      "stateMutability": "view",
      "type": "function"
    },
    {
      "inputs": [
        {
          "internalType": "bytes",
          "name": "signature",
          "type": "bytes"
        }
      ],
      "name": "playGame",
      "outputs": [],
      "stateMutability": "nonpayable",
      "type": "function"
    },
    {
      "inputs": [],
      "name": "reportCollision",
      "outputs": [],
      "stateMutability": "nonpayable",
      "type": "function"
    },
    {
      "inputs": [],
      "name": "trustedSigner",
      "outputs": [
        {
          "internalType": "address",
          "name": "",
          "type": "address"
        }
      ],
      "stateMutability": "view",
      "type": "function"
    },
    {
      "inputs": [
        {
          "internalType": "address",
          "name": "newSigner",
          "type": "address"
        }
      ],
      "name": "updateTrustedSigner",
      "outputs": [],
      "stateMutability": "nonpayable",
      "type": "function"
    },
    {
      "stateMutability": "payable",
      "type": "receive"
    }
  ],
  "transactionHash": "0xe56f50ccd98e1d59e062719ec8788e947a07c873ab3d19d27d906167ea1a7a6e",
  "args": [
    "0x1c07B848B69d0b435A80e84BAd6358251131d62d"
  ],
  "numDeployments": 2,
  "solcInputHash": "b87cb81174bb3b12d622b1996e4c6b04",
  "bytecode": "0x608060405234801561001057600080fd5b5060405161083d38038061083d83398101604081905261002f91610054565b600080546001600160a01b0319166001600160a01b0392909216919091179055610084565b60006020828403121561006657600080fd5b81516001600160a01b038116811461007d57600080fd5b9392505050565b6107aa806100936000396000f3fe6080604052600436106100595760003560e01c806330df34f71461006557806331757f2e1461007c57806347ed64e1146100a55780637530625f146100d2578063c27b20ca146100f2578063f74d54801461011257600080fd5b3661006057005b600080fd5b34801561007157600080fd5b5061007a61014a565b005b34801561008857600080fd5b5061009260025481565b6040519081526020015b60405180910390f35b3480156100b157600080fd5b506100926100c0366004610656565b60016020526000908152604090205481565b3480156100de57600080fd5b5061007a6100ed366004610656565b61019c565b3480156100fe57600080fd5b5061007a61010d36600461069c565b61021d565b34801561011e57600080fd5b50600054610132906001600160a01b031681565b6040516001600160a01b03909116815260200161009c565b6002805490600061015a8361074d565b9091555050600254604080519182523360208301527f9ce2356a920c597a2bcba687ca4ac5087eb106c5502fce869a0b0a053149aa10910160405180910390a1565b6000546001600160a01b031633146101fb5760405162461bcd60e51b815260206004820152601e60248201527f4f6e6c792063757272656e74207369676e65722063616e20757064617465000060448201526064015b60405180910390fd5b600080546001600160a01b0319166001600160a01b0392909216919091179055565b600080600061022b84610477565b6001600160a01b0383166000908152600160205260409020549295509093509150811161029a5760405162461bcd60e51b815260206004820152601760248201527f496e76616c6964206f7220726575736564206e6f6e636500000000000000000060448201526064016101f2565b6040516bffffffffffffffffffffffff19606085901b16602082015260348101839052605481018290526000906074016040516020818303038152906040528051906020012090506102ec81866104de565b61032c5760405162461bcd60e51b8152602060048201526011602482015270496e76616c6964207369676e617475726560781b60448201526064016101f2565b6001600160a01b0384166000908152600160205260409020829055478311156103975760405162461bcd60e51b815260206004820152601d60248201527f496e73756666696369656e7420636f6e74726163742062616c616e636500000060448201526064016101f2565b6000846001600160a01b03168460405160006040518083038185875af1925050503d80600081146103e4576040519150601f19603f3d011682016040523d82523d6000602084013e6103e9565b606091505b505090508061042c5760405162461bcd60e51b815260206004820152600f60248201526e151c985b9cd9995c8819985a5b1959608a1b60448201526064016101f2565b846001600160a01b03167f5afeca38b2064c23a692c4cf353015d80ab3ecc417b4f893f372690c11fbd9a68560405161046791815260200190565b60405180910390a2505050505050565b60008060006061845110156104c75760405162461bcd60e51b8152602060048201526016602482015275496e76616c6964207369676e6174757265206461746160501b60448201526064016101f2565b505050601481015160348201516054909201519092565b600080610538846040517f19457468657265756d205369676e6564204d6573736167653a0a3332000000006020820152603c8101829052600090605c01604051602081830303815290604052805190602001209050919050565b6000549091506001600160a01b03166105518285610563565b6001600160a01b031614949350505050565b600080600080610572856105e2565b6040805160008152602081018083528b905260ff8316918101919091526060810184905260808101839052929550909350915060019060a0016020604051602081039080840390855afa1580156105cd573d6000803e3d6000fd5b5050604051601f190151979650505050505050565b600080600083516041146106385760405162461bcd60e51b815260206004820152601860248201527f496e76616c6964207369676e6174757265206c656e677468000000000000000060448201526064016101f2565b50505060208101516040820151606090920151909260009190911a90565b60006020828403121561066857600080fd5b81356001600160a01b038116811461067f57600080fd5b9392505050565b634e487b7160e01b600052604160045260246000fd5b6000602082840312156106ae57600080fd5b813567ffffffffffffffff808211156106c657600080fd5b818401915084601f8301126106da57600080fd5b8135818111156106ec576106ec610686565b604051601f8201601f19908116603f0116810190838211818310171561071457610714610686565b8160405282815287602084870101111561072d57600080fd5b826020860160208301376000928101602001929092525095945050505050565b60006001820161076d57634e487b7160e01b600052601160045260246000fd5b506001019056fea26469706673582212201cbd44f17dbcecae748658556cb1694f3659b990362102472988f8eb3bdc9fe064736f6c63430008140033",
  "devdoc": {
    "kind": "dev",
    "methods": {},
    "version": 1
  },
  "userdoc": {
    "kind": "user",
    "methods": {},
    "version": 1
  },
  "storageLayout": {
    "storage": [
      {
        "astId": 3,
        "contract": "contracts/Games.sol:Game",
        "label": "trustedSigner",
        "offset": 0,
        "slot": "0",
        "type": "t_address"
      },
      {
        "astId": 7,
        "contract": "contracts/Games.sol:Game",
        "label": "latestNonce",
        "offset": 0,
        "slot": "1",
        "type": "t_mapping(t_address,t_uint256)"
      },
      {
        "astId": 9,
        "contract": "contracts/Games.sol:Game",
        "label": "collisionCount",
        "offset": 0,
        "slot": "2",
        "type": "t_uint256"
      }
    ],
    "types": {
      "t_address": {
        "encoding": "inplace",
        "label": "address",
        "numberOfBytes": "20"
      },
      "t_mapping(t_address,t_uint256)": {
        "encoding": "mapping",
        "key": "t_address",
        "label": "mapping(address => uint256)",
        "numberOfBytes": "32",
        "value": "t_uint256"
      },
      "t_uint256": {
        "encoding": "inplace",
        "label": "uint256",
        "numberOfBytes": "32"
      }
    }
  }
}